:020000040000fa
:080000000002040000000000f2
:020000040000fa
:0400080010040000e0
:020000040000fa
:04000c0010040000dc
:020000040000fa
:0400100010040000d8
:020000040000fa
:0400140010040000d4
:020000040000fa
:0400180010040000d0
:020000040000fa
:04001c0010040000cc
:020000040000fa
:0400200010040000c8
:020000040000fa
:0400240010040000c4
:020000040000fa
:0400280010040000c0
:020000040000fa
:04002c0010040000bc
:020000040000fa
:0400300010040000b8
:020000040000fa
:0400340010040000b4
:020000040000fa
:0400380010040000b0
:020000040000fa
:04003c0010040000ac
:020000040000fa
:0400400010040000a8
:020000040000fa
:0400440010040000a4
:020000040000fa
:0400480010040000a0
:020000040000fa
:04004c00100400009c
:020000040000fa
:040050001004000098
:020000040000fa
:040054001004000094
:020000040000fa
:040058001004000090
:020000040000fa
:04005c00100400008c
:020000040000fa
:040060001004000088
:020000040000fa
:040064001004000084
:020000040000fa
:040068001004000080
:020000040000fa
:04006c00100400007c
:020000040000fa
:040070001004000078
:020000040000fa
:04007400bc020000ca
:020000040000fa
:040078001004000070
:020000040000fa
:04007c00100400006c
:020000040000fa
:040080001004000068
:020000040000fa
:040084001004000064
:020000040000fa
:040088001004000060
:020000040000fa
:04008c00100400005c
:020000040000fa
:040090001004000058
:020000040000fa
:040094003e03000027
:020000040000fa
:040098001004000050
:020000040000fa
:04009c00100400004c
:020000040000fa
:0400a000a4030000b5
:020000040000fa
:0400a400da0300007b
:020000040000fa
:0400a8001004000040
:020000040000fa
:0400ac00100400003c
:020000040000fa
:0400b0001004000038
:020000040000fa
:0400b4001004000034
:020000040000fa
:0400b8001004000030
:020000040000fa
:0400bc00100400002c
:020000040000fa
:0400c0001004000028
:020000040000fa
:0400c4001004000024
:020000040000fa
:0400c8001004000020
:020000040000fa
:0400cc00100400001c
:020000040000fa
:0400d0001004000018
:020000040000fa
:0400d4001004000014
:020000040000fa
:0400d8001004000010
:020000040000fa
:0400dc00100400000c
:020000040000fa
:0400e0001004000008
:020000040000fa
:0400e40024030000f1
:020000040000fa
:0400e8001004000000
:020000040000fa
:0400ec0010040000fc
:020000040000fa
:0400f00010040000f8
:020000040000fa
:0400f40010040000f4
:020000040000fa
:0400f80010040000f0
:020000040000fa
:0400fc0010040000ec
:020000040000fa
:0401000010040000e7
:020000040000fa
:0401040010040000e3
:020000040000fa
:0401080010040000df
:020000040000fa
:04010c0010040000db
:020000040000fa
:0401100010040000d7
:020000040000fa
:0401140010040000d3
:020000040000fa
:0401180010040000cf
:020000040000fa
:04011c0010040000cb
:020000040000fa
:0401200010040000c7
:020000040000fa
:0401240010040000c3
:020000040000fa
:0401280010040000bf
:020000040000fa
:04012c0010040000bb
:020000040000fa
:0401300010040000b7
:020000040000fa
:0401340010040000b3
:020000040000fa
:0401380010040000af
:020000040000fa
:04013c0010040000ab
:020000040000fa
:0401400010040000a7
:020000040000fa
:0401440010040000a3
:020000040000fa
:0402080010040000de
:020000040000fa
:04020c0010040000da
:020000040000fa
:0402100010040000d6
:020000040000fa
:0402140010040000d2
:020000040000fa
:0402180010040000ce
:020000040000fa
:04021c0010040000ca
:020000040000fa
:0402200010040000c6
:020000040000fa
:0402240010040000c2
:020000040000fa
:0402280010040000be
:020000040000fa
:04022c0010040000ba
:020000040000fa
:0402300010040000b6
:020000040000fa
:0402340010040000b2
:020000040000fa
:0402380010040000ae
:020000040000fa
:04023c0010040000aa
:020000040000fa
:0402400010040000a6
:020000040000fa
:0402440010040000a2
:020000040000fa
:04024800100400009e
:020000040000fa
:04024c00100400009a
:020000040000fa
:040250001004000096
:020000040000fa
:040254001004000092
:020000040000fa
:04025800100400008e
:020000040000fa
:04025c00100400008a
:020000040000fa
:040260001004000086
:020000040000fa
:040264001004000082
:020000040000fa
:04026800100400007e
:020000040000fa
:04026c00100400007a
:020000040000fa
:040270001004000076
:020000040000fa
:040274001004000072
:020000040000fa
:04027800100400006e
:020000040000fa
:04027c00100400006a
:020000040000fa
:040280001004000066
:020000040000fa
:040284001004000062
:020000040000fa
:04028800100400005e
:020000040000fa
:04028c00100400005a
:020000040000fa
:040290001004000056
:020000040000fa
:040294001004000052
:020000040000fa
:04029800100400004e
:020000040000fa
:04029c00100400004a
:020000040000fa
:0402a0001004000046
:020000040000fa
:0402a4001004000042
:020000040000fa
:0402a800100400003e
:020000040000fa
:0402ac00100400003a
:020000040000fa
:0402b0001004000036
:020000040000fa
:0402b4001004000032
:020000040000fa
:0402b800100400002e
:020000040000fa
:0402bc00100400002a
:020000040000fa
:0402c0001004000026
:020000040000fa
:0402c4001004000022
:020000040000fa
:0402c800100400001e
:020000040000fa
:0402cc00100400001a
:020000040000fa
:0402d0001004000016
:020000040000fa
:0402d4001004000012
:020000040000fa
:0402d800100400000e
:020000040000fa
:0402dc00100400000a
:020000040000fa
:0402e0001004000006
:020000040000fa
:0402e4001004000002
:020000040000fa
:0402e80010040000fe
:020000040000fa
:0402ec0010040000fa
:020000040000fa
:0402f00010040000f6
:020000040000fa
:0402f40010040000f2
:020000040000fa
:0402f80010040000ee
:020000040000fa
:0402fc0010040000ea
:020000040000fa
:0403000010040000e5
:020000040000fa
:0403040010040000e1
:020000040000fa
:0403080010040000dd
:020000040000fa
:04030c0010040000d9
:020000040000fa
:0403100010040000d5
:020000040000fa
:0403140010040000d1
:020000040000fa
:0403180010040000cd
:020000040000fa
:04031c0010040000c9
:020000040000fa
:0403200010040000c5
:020000040000fa
:0403240010040000c1
:020000040000fa
:0403280010040000bd
:020000040000fa
:04032c0010040000b9
:020000040000fa
:0403300010040000b5
:020000040000fa
:0403340010040000b1
:020000040000fa
:0403380010040000ad
:020000040000fa
:04033c0010040000a9
:020000040000fa
:0403400010040000a5
:020000040000fa
:0403440010040000a1
:020000040000fa
:10040000af8e20000eff27000e01880000000000c4
:10041000000020000000e000020032000001200087
:10042000200288000e00070080e920000100200063
:10043000810f70000100320014000700000020004e
:100440000000e00002003200000002000000000096
:100450006a0e0200000000000040da000000fe000a
:100460004440a900800120000000e00003003200a9
:1004700000002000a00188004440a8000000060001
:100480008a1f78008b1f7800000006009101880009
:10049000800478000000eb001a003700e28444007a
:1004a00032a0b4009905ba00e284440032a0b4003e
:1004b0009906ba00e284440032a0b4000006eb00c2
:1004c000476fde00fd07b200636ce10003003a00f5
:1004d000ebff07000000eb000a003700606ce10052
:1004e00004003a00005deb008b05e900fdff3e00d3
:1004f000040037006168e100010032000086eb0073
:100500000b00070019c7ba001905ba000e04e00075
:1005100003003a000a00e000e0ff3a000000060095
:10052000fe07b2009e0188008a047800f5ff3700bc
:10053000395dba008b05e9000c003200295dba0074
:100540008b05e900080032000c00e00003003a00cf
:10055000e284440032a0b400f5ff370019ddba0090
:100560008b05e900faff3a008904e800e1844400c1
:1005700032a0b400000006003600f800809fbe00e4
:10058000829fbe00849fbe00869fbe003400f8009c
:1005900000002000a00188000000fa008660a90089
:1005a000e80407000000e00015003200d104070055
:1005b0000000e00007003200d80407000000e0005f
:1005c00004003a00e9040700804080000000e800d1
:1005d00080408800d10407000000e00012003200d3
:1005e000c40407000000e0000f003a00eb0407001d
:1005f000904080000000e800904088000a0037002a
:10060000f30407000000e000060032004a01070082
:1006100006c8bf000040e80006e8b7001000200050
:10062000a04088008c0407000080fa003400f90024
:100630004f03be004f02be004f01be004f00be0080
:100640003600f90000400600801f78003400f800f2
:1006500000002000a00188000000fa0089e0a90045
:10066000c04080000000e800c04088000080fa0020
:100670003400f9004f007800004006003600f80012
:10068000809fbe00829fbe00849fbe00869fbe00ea
:100690003400f80000002000a00188000000fa00eb
:1006a0008760a90000c8bf000040e80000e8b7006c
:1006b00000c8bf00e34f50001b0036000068ef0089
:1006c00007c8bf000040e80007e8b70071802000bd
:1006d00091407800c0c3b30080cf500011003a00b1
:1006e0000768ef0008c8bf000040e80008e8b7004e
:1006f0008180200091407800c0c3b30080cf5000bb
:1007000008003a000868ef0009c8bf000040e80090
:1007100009e8b70009c8bf00f84f500001003a00cf
:100720000968ef00fc0207000080fa003400f900bd
:100730004f03be004f02be004f01be004f00be007f
:100740003600f900004006003600f800809fbe0029
:10075000829fbe00849fbe00869fbe003400f800ca
:1007600000002000a00188000000fa00ea00070055
:1007700087c0a900b0118000e0408800404180009f
:100780000000e00002003200c7040700010037004b
:10079000d60407000080fa003400f9004f03be00c1
:1007a0004f02be004f01be004f00be003600f900f0
:1007b00000400600809fbe003400f80000002000ca
:1007c000a00188000000fa0087e0a900e08c20006a
:1007d000104078008080fb0050418000808f5000e6
:1007e0000900360050418000d18c20006140780023
:1007f0000080fb00a0118800504180000000e8004c
:10080000504188000200370010002000504188004d
:100810000080fa003400f9004f00be0000400600de
:100820000040da000000fe00889fbe008a9fbe00e4
:100830008c1f7800590007006000330003866c00ad
:100840006450e1002e0032006420e10033003200e9
:100850006150e1002f0032006120e10031003200e0
:1008600085855500eb07b000090020000804200032
:10087000050037000804440089844c000a00310058
:100880000603430087834b000001530081815b0016
:10089000f8ff33000203be000800a0000804440073
:1008a00089844c00f6ff3900c639dd0083017300ee
:1008b00001003200130020008904d1000884d30015
:1008c0000998a300050032000800a7000300a0005b
:1008d0008904d1000884d3008b05e8008904d10085
:1008e0000884d3000001eb000281d200430007001e
:1008f00001f0a1000cf0a70001f0a00038003700c3
:100900006420e1003a0032000801be000200be008f
:10091000f7ff37006120e100350032006000b800c9
:10092000f3ff37000000200001f82700f0ff370038
:100930000001be00570007000470a70003f0a100eb
:1009400003f8a30013003a006509b100100032005b
:10095000090035006928e100020035000100280087
:100960000000050000004000818048008502e90089
:10097000fcff3a0000000600f88f42000500350039
:100980008100d1000080d3008502e800fcff3a001e
:10099000000006008000eb00000005000004be001f
:1009a0003c0007000003be000405be000200be00bc
:1009b00038000700844f7500000006000200be00ea
:1009c0006450e100050036006420e10002003600ba
:1009d0000968a30001003a000800be000160a00001
:1009e0004f0678004f05be004f04be000000060011
:1009f000f0ff2f00f1ff2700f9ff370081002000f2
:100a0000618055000b003d000b00200061fe2f00af
:100a10000100e1001d003400828171006101640069
:100a20008904d1000884d3000000e800faff3a00ee
:100a3000710020006100640003007000020060008b
:100a40000900320061044400e0844c000988a500dc
:100a5000050032008b05e8006808e10002003a005a
:100a60008904d1000884d300f20f20000258e1006d
:100a700005003d00c75ddd00f907b2008980750003
:100a800008007800000006000bf827008b007800b3
:100a900000000500c70ade00f107b200f50fb20042
:100aa00008003200e1cf4200020032000170a000d5
:100ab00024000500810f70000100320004080500c9
:100ac00044000500810f700002003a001400050088
:100ad0008502e9000000400081c04800fcff3b00a7
:080ae0000170a00024000500d4
:020000040000fa
:100ae800484800003a4d00004d3a000053530000ba
:100af80020560000454c000020200000003a00006d
:100b0800004800004f520000413a00002000000059
:020000040000fa
:100b18000000fa00c202a8000080fa0000000600e7
:100b28000000fa00c202a9000080fa0000000600d6
:100b38000000fa00504080009280200012417800a6
:100b4800e38220006500b9000000780000804100c1
:100b580002487800504080008280200012417800ce
:100b6800f38220006500b900000078000080410091
:100b780002487800504080007280200012417800be
:100b8800e38220006500b900000078000080410081
:100b98000080e8000248780050408000c2802000b1
:100ba80012417800f38220006500b9000000780047
:100bb800008041000080e800024878005040800032
:100bc8008140800001417800e38220006500b9007f
:100bd800000078000080410064004000024878006e
:100be800504080000000e800504088000080fa0073
:100bf800000006000000fa00d08c200010407800a9
:100c08000080fb00a01188000080fa0000000600a8
:100c18000200fa000000eb00000f78002700370000
:100c28001e007800e28220006500b900000078000c
:100c3800000041008040eb00014878001e00780069
:100c4800f28220006500b900000078000000410031
:100c58008040eb00014878001e007800e282200006
:100c68006500b90000007800000041000080e8003d
:100c78008040eb00014878001e007800f2822000d6
:100c88006500b90000007800000041000080e8001d
:100c98008040eb00014878001e007800e2822000c6
:100ca8006500b900000078000000410064004000c1
:100cb8008040eb00014878001e0fe8001e00780015
:100cc800fd0f5000d6ff34000668ef000a28ef0039
:100cd8000080fa00000006000400fa000000eb00a3
:100ce800100798000000eb00000f78000c00370098
:100cf8001e0078006500b90000007800640040001c
:100d0800e182200061407800e24f50000300360085
:100d18001e0090000000e800100798001e0fe80071
:100d28001e007800fd0f5000f1ff34001e009000f7
:100d38000080fa00000006000600fa00200798006c
:100d48000000eb00000f78006000200010079800fa
:100d58000000eb00000f7800460037001e00780006
:100d68006500b90000007800e18220006140780049
:100d78008080fb002e009000808f50003c003a00dd
:100d88001e0078006500b90000007800e1822000ac
:100d9800e1407800d28c20001e0090000000410045
:100da800014878001e0078006500b900000078004e
:100db800f1822000e1407800d28c20001e009000d3
:100dc80000004100014878001e0090000000e80083
:100dd800100798001e0078006500b9000000780030
:100de8000080e800e1822000e1407800d28c2000f9
:100df8001e00900000004100014878001e0090008d
:100e08000000e800100798001e0078006500b9008f
:100e1800000078000080e800f1822000e1407800be
:100e2800d28c20001e00900000004100014878008c
:100e38001e0090000000e800100798001e007800cf
:100e48006500b9000000780064004000e1822000dd
:100e5800e1407800d28c20001e0090000000410084
:100e6800014878001e0090000000e8001007980074
:100e78001e0fe8001e007800fd0f5000b7ff340079
:100e88001e009000e60f5000050032001e00900082
:100e98000040780080c0e800e08c2000014878001d
:100ea8000080fa00000006000c00fa00e08c200028
:100eb800104078000080fb00300798000000eb002d
:100ec80040079800250037009e00e8003e0090008b
:100ed8000080e900808f500009003a00d08c200083
:100ee8001e004000104078000080fb00200798009a
:100ef8002e0090004800dd00200798001000370001
:100f0800d08c20001e004000104078000080fb00bc
:100f1800200798002e0090004800dd002007980068
:100f28001e0fe800d08c20001e0040001040780002
:100f38000080fb00ae009000008040002007980071
:100f48009e0090002e00900000804000100798003e
:100f58000000eb00200798001e0fe8003e009000fc
:100f68000080e9009e0f5000d7ff3c009e009000d3
:100f7800510798001e0090004880de004007980046
:100f88005e0090004800dd00500798005e00900069
:100f98004880de00500798003e0090000080e9007d
:100fa800ce00900001417800d18c2000827078003a
:100fb8003e0090000000e900de009000014178004a
:100fc800d18c2000827078000080fa0000000600b2
:100fd8000000fa00e08c200091c0b30001487800be
:100fe800208d200011c4b3000148780061802000e2
:100ff80091407800308d200001487800aaff070052
:10100800fcfe07000080fa00000006000000fa005d
:10101800e08c200081c0b30001487800208d2000ba
:1010280021c4b30001487800f9fe07009eff0700bd
:10103800f0fe07000080fa00000006000000fa0039
:10104800e08c200091c0b30001487800208d20007a
:1010580031c4b300014878001fff070080407800c2
:10106800308d2000014878008fff0700e1fe07005f
:101078000080fa00000006000200fa00000f780065
:10108800e08c200081c0b30001487800208d20004a
:1010980041c4b300014878001e00780026ff07000d
:1010a80081ff0700d3fe07000080fa000000060059
:1010b8000000fa00e08c200081c0b30001487800ed
:1010c800208d200051c4b3000148780090fe07002d
:1010d80075ff0700c7fe07000080fa000000060041
:1010e8000000fa00e08c200081c0b30001487800bd
:1010f800208d200061c4b300014878006aff070012
:10110800bcfe07000080fa00000006000000fa009c
:10111800f3ff07000080fa00000006000a00fa004a
:101128002028ef000000eb0030079800508c2000ca
:10113800104078000080fb0040079800608c200079
:1011480010407800e24f500049003a002b00370069
:101158002e0090008000e8004e0090000080e9001a
:10116800808f50000a003a00418c20002e00900029
:1011780000804000104078000080fb0010079800b5
:101188001e0090004800dd0010079800140037008a
:10119800418c20002e009000008040001040780014
:1011a8000080fb00100798001e0090004800dd003a
:1011b800100798002e0090000000e8002007980013
:1011c800418c20002e0090000080400010407800e4
:1011d8000080fb009e0090000080400010079800ef
:1011e8001e0090001e0f40000000eb001007980042
:1011f8002e0090000000e800200798004e009000a4
:101208008080e9002e009000808f5000d0ff3c00c5
:101218004e0090000080e900418c20006140780079
:101228000080fb00300798003e0090004800dd0079
:10123800300798004e0090000000e900418c200023
:10124800614078000080fb00be00900000804000f4
:10125800300798003e0090009e0f500003003a00af
:10126800100020000041880001003700a7ff070098
:101278000080fa00000006000400fa00000f780061
:10128800110798001e00780031042000810f5000db
:101298001500320031042000810f500007003c0087
:1012a80011042000810f50000b003200210420009f
:1012b800810f50000a00320012003700410420005c
:1012c800810f50000a00320051042000810f5000a5
:1012d8000a0032000b0037003dff07000a00370004
:1012e8004aff07000800370054ff070006003700d0
:1012f8001e00900060ff0700030037006cff070026
:101308000100370076ff07000080fa0000000600a1
:101318000200fa0050408000000f78001e0078009c
:101328000000e000020032001e0fe9000200370052
:101338000000eb00000f78001e0078006500b9007f
:10134800000078000080e800f1822000e141780088
:101358001e0078006500b900000078000080e800f1
:10136800e1822000614178001e0078006500b90024
:1013780000007800f1822000614278001e007800a9
:101388006500b90000007800e18220006140780023
:1013980084407800cd0007000080fa0000000600b5
:1013a8000000fa004427ef0060022000303a88006d
:1013b8003200200080072000a1092000337420009b
:1013c800804978008149780082497800120020001d
:1013d80060042000710520002374200080497800f3
:1013e800814978008249780000000000113a8000a5
:1013f800000027008080600000002300808f5000dc
:10140800faff3a0000000000113a800000022000b4
:10141800008060000000e000fbff32000080fa005e
:10142800000006000000fa00a005200007020700df
:10143800e116800000f02f0000806000e0168800b0
:10144800d6a2a900cbe2a900d682a900c1168000c5
:1014580000f02f0000806000c0168800d2a2a9000a
:10146800c7e2a900d282a900e116800000f02f008f
:1014780000806000e0168800e116800080032000ec
:1014880001007000e0168800d682a8000000000065
:101498000000000000000000d682a900e001200042
:1014a800ea010700e116800000f02f0000806000cc
:1014b800e0168800e116800080032000010070001b
:1014c800e0168800d682a800000000000000000096
:1014d80000000000d682a90030002000e9010700c2
:1014e800e116800000f02f0000806000e016880000
:1014f800e11680008003200001007000e0168800db
:10150800d682a800000000000000000000000000d3
:10151800d682a90030002000da01070080c3b3009a
:1015280006000700c0c0b3000400070060c0b30095
:10153800020007000080fa00000006000200fa001e
:10154800004f7800e116800000f02f000080600056
:10155800e01688009e00fb00e01680000100700085
:10156800e0168800d6a2a900cbe2a900d682a8007e
:10157800000000000000000000000000d682a90062
:10158800e0012000b10107000080fa000000060019
:101598000200fa00004f7800d6a2a900cbe2a8000a
:1015a800e116800000f02f0000806000e01688003f
:1015b8009e00fb00e016800001007000e016880025
:1015c800d682a80000000000000000000000000013
:1015d800d682a900cbe2a90030002000a9010700ab
:1015e80030002000a70107000080fa000000060074
:1015f8000400fa00000f7800214798000700370020
:101608001e007800104078001e0fe800e0ff070079
:101618002e4090000040e900204798002e4090009e
:101628000004e000f6ff3a000080fa00000006001f
:101638000200fa00004f78002468ef002568ef00e8
:101648002668ef001900370070ccb3009e40780080
:1016580080cf50000400360081c3b3001ecf400085
:1016680020c0b30024e8b70030c6b3009e4078001d
:1016780080cf500005003600c0c9b3001e4f40009f
:1016880024c8bf000040e80024e8b7001e407800e6
:10169800e94f5000050036001e4178006a4f51009e
:1016a80025c8bf000040e80025e8b7001e407800c4
:1016b800e94f5000e4ff3e001e417800618220009f
:1016c800824878000080fa00000006000400fa0052
:1016d800004f780011479800224798003347980038
:1016e80020c0b30095ff07005058280061c0b30020
:1016f800bfff070009c8bf00cdff070025c8bf000e
:101708000043b000a2ff070026c8bf000043b00096
:101718009fff07003058280011c0b300b4ff07002e
:1017280008c8bf00c2ff070025c8bf000043b000bb
:1017380097ff070026c8bf000043b00094ff0700ca
:101748003058280011c0b300a9ff070007c8bf0020
:10175800b7ff070025c8bf000043b0008cff070093
:1017680026c8bf000043b00089ff070000ccb300c3
:1017780072ff07001e407800adff070025c8bf00b4
:101788000043b00082ff070026c8bf000043b00036
:101798007fff07003058280011c0b30094ff0700ee
:1017a8001e409000a2ff070025c8bf000043b000fc
:1017b80077ff070026c8bf000043b00074ff07008a
:1017c8003058280011c0b30089ff07002e40900050
:1017d80097ff070025c8bf000043b0006cff070053
:1017e80026c8bf000043b00069ff070040c1b3002e
:1017f80052ff07003e4090008dff070024c8bf003d
:101808000043b00062ff070025c8bf000043b000d6
:101818005fff070026c8bf000043b0005cff070059
:1018280040c1b30045ff070006c8bf0080ff07009e
:1018380025c8bf000043b00055ff070026c8bf00f9
:101848000043b00052ff07000080fa0000000600c5
:101858000000fa000c68ef000e28ef001028ef00d7
:101868001228ef001828ef001e28ef000080fa0069
:10187800000006000c00fa00a0702d0031c2230001
:10188800008fbe0002002000135624001e00be0078
:10189800e3fb070020079800310798002e0190000d
:1018a800be01900020952400d1992300dcfb07009d
:1018b80040079800510798004e009000de00900005
:1018c80019fc0700004078000ce8b700c180200030
:1018d80091407800c0c3b30080cf500001003600ab
:1018e8008bfc07000080fa00000006000000fa00e8
:1018f800a1168000000420000080600000f0a7000e
:101908000000ea000000e9004f00de000080fa0055
:10191800000006000000fa00a11680000008200060
:101928000080600000f0a7000000ea000000e90065
:101938004f00de000080fa00000006000000fa00f8
:10194800a1168000000022000080600000f0a700bf
:101958000000ea000000e9004f00de000080fa0005
:10196800000006000000fa0061098000000028005d
:10197800008060000000e00004003a00f0408000b1
:101988000000e00001003a002de1a8000080fa0004
:10199800000006000000fa0061098000000028002d
:1019a800008060000000e000050032002de1a90081
:1019b8002221ef0010002000f0408800adff070052
:1019c8000080fa00000006000000fa008140800054
:1019d80090408000808f500007003a0080408000cf
:1019e800e10f50000200360010002000030037000d
:1019f8000000eb00010037000000eb000080fa0057
:101a0800000006000000fa002c21ef0061098000a8
:101a1800f0fc2f00008060000040a00060098800f2
:101a280089e0a900d1058000f0ff280080806000cf
:101a38000000250001007000d005880099e0a8008a
:101a480010272000400988000080fa0000000600e6
:101a58000000fa001e21ef00f108800000032000ba
:101a680001007000f00888008760a90081058000e7
:101a7800f0ff280080806000000025000100700051
:101a8800800588009760a80060892900d008880030
:101a98001421ef001fe1a8000080fa0000000600f2
:101aa8000000fa001a28ef00e1408000e00f200053
:101ab800808f500009003a00d0408000e14080004b
:101ac80001417800418c200082707800d04080006d
:101ad8000000e800d04088002828ef000080fa00c5
:101ae800000006000000fa00d0408000e1408000bd
:101af80001417800418c200082707800d04080003d
:101b08000000e800d0408800508c20001040780089
:101b18008080fb00d0408000808f500009003a0090
:101b28007efd0700004180000000e0000300320055
:101b3800f7fb070010002000b040880010002000cc
:101b4800404188000080fa00000006000000fa000a
:101b58003002a9008111800090ff2f0000806000f2
:101b68008011880030a2a9003062a900301020003e
:101b7800c011880091118000f0f32f0000806000f0
:101b88009011880087c0a90097c0a8003342a80018
:101b980087e0a90097e0a80031e2a8000080fa00d9
:101ba800000006000000fa000080eb0060198800c1
:101bb8000080eb0050198800e0ff2f000016880015
:101bc8000080eb009016880061e0a8006200a80081
:101bd8006260a8009660a8000080fa000000060075
:101be8000000fa00d08c2000e1cfb3000148780053
:101bf800e08c200081c0b30001487800f08c200000
:101c080031c0b30001487800008d200021c0b30026
:101c180001487800108d200001c4b3000148780005
:101c28000080fa00000006000000fa00ecff070040
:101c3800dcff0700c5ff070072ff070084ff0700ed
:101c4800f8fd07000080fa00000006000200fa0014
:101c5800000f78001e00e800604188002c28ed0085
:101c68002c08e20005003200800c0800010000008a
:101c78000000000000000000f8ff37000080fa00b4
:101c8800000006000200fa00000f78001e00e800bd
:101c9800604188002c28ed002c08e2000500320085
:101ca800dc05080001000000000000000000000042
:101cb800f8ff37000080fa00000006000000fa0074
:101cc80093fd07000080fa00000006000000fa00fb
:101cd80010c0b30019fe0700d3ff0700010037004a
:101ce80000000000a04080000000e0000200320078
:101cf8001428ef00f1ff0700b04080000000e0006a
:101d0800f7ff3200a08c2000104078008080fb0094
:101d1800908c2000104078000080fb0056fd0700e2
:081d28001628ef00efff370061
:020000040000fa
:101d30002c08000002000000000000002408000041
:101d40000400000000000000c4080000260000009d
:101d50000000000000080000240000000000000057
:101d6000280800000400000002000000010001003b
:101d7000000000002e080000960000000000000097
:041d8000000000005f
:020000040000fa
:0200000401f009
:04000000ffff0000fe
:020000040000fa
:0200000401f009
:04000400ffff0000fa
:020000040000fa
:0200000401f009
:04000800ffff0000f6
:020000040000fa
:0200000401f009
:04000c00fbff0000f6
:020000040000fa
:0200000401f009
:04001000bdff000030
:020000040000fa
:0200000401f009
:04001400ffff0000ea
:020000040000fa
:0200000401f009
:04001800ffff0000e6
:020000040000fa
:0200000401f009
:04001c00dfff000002
:00000001FF
